{
  "contractName": "SalaryDrop",
  "abi": [
    {
      "inputs": [
        {
          "internalType": "address",
          "name": "_employeeList",
          "type": "address"
        },
        {
          "internalType": "address",
          "name": "usdt",
          "type": "address"
        }
      ],
      "stateMutability": "nonpayable",
      "type": "constructor"
    },
    {
      "inputs": [
        {
          "internalType": "address",
          "name": "",
          "type": "address"
        }
      ],
      "name": "EmployeeListCheck",
      "outputs": [
        {
          "internalType": "bool",
          "name": "",
          "type": "bool"
        }
      ],
      "stateMutability": "view",
      "type": "function"
    },
    {
      "inputs": [
        {
          "internalType": "address",
          "name": "_employee",
          "type": "address"
        },
        {
          "internalType": "uint256",
          "name": "_salary",
          "type": "uint256"
        }
      ],
      "name": "Employeelist",
      "outputs": [],
      "stateMutability": "nonpayable",
      "type": "function"
    },
    {
      "inputs": [
        {
          "internalType": "address",
          "name": "",
          "type": "address"
        }
      ],
      "name": "SalaryList",
      "outputs": [
        {
          "internalType": "uint256",
          "name": "",
          "type": "uint256"
        }
      ],
      "stateMutability": "view",
      "type": "function"
    },
    {
      "inputs": [],
      "name": "SalaryListCount",
      "outputs": [
        {
          "internalType": "uint256",
          "name": "",
          "type": "uint256"
        }
      ],
      "stateMutability": "view",
      "type": "function"
    },
    {
      "inputs": [],
      "name": "USDT",
      "outputs": [
        {
          "internalType": "contract IERC20",
          "name": "",
          "type": "address"
        }
      ],
      "stateMutability": "view",
      "type": "function"
    },
    {
      "inputs": [],
      "name": "admin",
      "outputs": [
        {
          "internalType": "address",
          "name": "",
          "type": "address"
        }
      ],
      "stateMutability": "view",
      "type": "function"
    },
    {
      "inputs": [],
      "name": "listedEmployee",
      "outputs": [
        {
          "internalType": "contract EmployeeList",
          "name": "",
          "type": "address"
        }
      ],
      "stateMutability": "view",
      "type": "function"
    },
    {
      "inputs": [
        {
          "internalType": "address",
          "name": "_employeeAddress",
          "type": "address"
        }
      ],
      "name": "SalaryDropHere",
      "outputs": [],
      "stateMutability": "nonpayable",
      "type": "function"
    }
  ],
  "bytecode": "0x608060405234801561001057600080fd5b50604051610c58380380610c5883398181016040528101906100329190610111565b81600360006101000a81548173ffffffffffffffffffffffffffffffffffffffff021916908373ffffffffffffffffffffffffffffffffffffffff16021790555080600560006101000a81548173ffffffffffffffffffffffffffffffffffffffff021916908373ffffffffffffffffffffffffffffffffffffffff16021790555033600660006101000a81548173ffffffffffffffffffffffffffffffffffffffff021916908373ffffffffffffffffffffffffffffffffffffffff1602179055505050610196565b60008151905061010b8161017f565b92915050565b6000806040838503121561012457600080fd5b6000610132858286016100fc565b9250506020610143858286016100fc565b9150509250929050565b60006101588261015f565b9050919050565b600073ffffffffffffffffffffffffffffffffffffffff82169050919050565b6101888161014d565b811461019357600080fd5b50565b610ab3806101a56000396000f3fe608060405234801561001057600080fd5b50600436106100885760003560e01c8063895aa9a21161005b578063895aa9a214610101578063c54e44eb14610131578063ef10c56a1461014f578063f851a4401461017f57610088565b80630a996dea1461008d5780633bab4df4146100ab5780636d67f22f146100c95780637c137ea0146100e5575b600080fd5b61009561019d565b6040516100a291906108ae565b60405180910390f35b6100b36101a3565b6040516100c09190610838565b60405180910390f35b6100e360048036038101906100de9190610657565b6101c9565b005b6100ff60048036038101906100fa9190610680565b610434565b005b61011b60048036038101906101169190610657565b61057f565b604051610128919061081d565b60405180910390f35b61013961059f565b6040516101469190610853565b60405180910390f35b61016960048036038101906101649190610657565b6105c5565b60405161017691906108ae565b60405180910390f35b6101876105dd565b60405161019491906107d9565b60405180910390f35b60025481565b600360009054906101000a900473ffffffffffffffffffffffffffffffffffffffff1681565b3333905060011515600360009054906101000a900473ffffffffffffffffffffffffffffffffffffffff1673ffffffffffffffffffffffffffffffffffffffff1663895aa9a2846040518263ffffffff1660e01b815260040161022c91906107d9565b60206040518083038186803b15801561024457600080fd5b505afa158015610258573d6000803e3d6000fd5b505050506040513d601f19601f8201168201806040525081019061027c91906106bc565b1515146102be576040517f08c379a00000000000000000000000000000000000000000000000000000000081526004016102b59061088e565b60405180910390fd5b600560009054906101000a900473ffffffffffffffffffffffffffffffffffffffff1673ffffffffffffffffffffffffffffffffffffffff1663a9059cbb83600360009054906101000a900473ffffffffffffffffffffffffffffffffffffffff1673ffffffffffffffffffffffffffffffffffffffff1663ef10c56a866040518263ffffffff1660e01b815260040161035891906107d9565b60206040518083038186803b15801561037057600080fd5b505afa158015610384573d6000803e3d6000fd5b505050506040513d601f19601f820116820180604052508101906103a891906106e5565b6040518363ffffffff1660e01b81526004016103c59291906107f4565b602060405180830381600087803b1580156103df57600080fd5b505af11580156103f3573d6000803e3d6000fd5b505050506040513d601f19601f8201168201806040525081019061041791906106bc565b506004600081548092919061042b906109c0565b91905055505050565b600015156000808473ffffffffffffffffffffffffffffffffffffffff1673ffffffffffffffffffffffffffffffffffffffff16815260200190815260200160002060009054906101000a900460ff161515146104c6576040517f08c379a00000000000000000000000000000000000000000000000000000000081526004016104bd9061086e565b60405180910390fd5b60016000808473ffffffffffffffffffffffffffffffffffffffff1673ffffffffffffffffffffffffffffffffffffffff16815260200190815260200160002060006101000a81548160ff02191690831515021790555080600160008473ffffffffffffffffffffffffffffffffffffffff1673ffffffffffffffffffffffffffffffffffffffff1681526020019081526020016000208190555060016002600082825461057491906108da565b925050819055505050565b60006020528060005260406000206000915054906101000a900460ff1681565b600560009054906101000a900473ffffffffffffffffffffffffffffffffffffffff1681565b60016020528060005260406000206000915090505481565b600660009054906101000a900473ffffffffffffffffffffffffffffffffffffffff1681565b60008135905061061281610a38565b92915050565b60008151905061062781610a4f565b92915050565b60008135905061063c81610a66565b92915050565b60008151905061065181610a66565b92915050565b60006020828403121561066957600080fd5b600061067784828501610603565b91505092915050565b6000806040838503121561069357600080fd5b60006106a185828601610603565b92505060206106b28582860161062d565b9150509250929050565b6000602082840312156106ce57600080fd5b60006106dc84828501610618565b91505092915050565b6000602082840312156106f757600080fd5b600061070584828501610642565b91505092915050565b61071781610930565b82525050565b61072681610942565b82525050565b61073581610978565b82525050565b6107448161099c565b82525050565b6000610757601c836108c9565b91507f4572726f723a2057616c6c657420616c7265616479206c6973746564000000006000830152602082019050919050565b6000610797601a836108c9565b91507f746869732061646472657373206973206e6f74206c69737465640000000000006000830152602082019050919050565b6107d38161096e565b82525050565b60006020820190506107ee600083018461070e565b92915050565b6000604082019050610809600083018561070e565b61081660208301846107ca565b9392505050565b6000602082019050610832600083018461071d565b92915050565b600060208201905061084d600083018461072c565b92915050565b6000602082019050610868600083018461073b565b92915050565b600060208201905081810360008301526108878161074a565b9050919050565b600060208201905081810360008301526108a78161078a565b9050919050565b60006020820190506108c360008301846107ca565b92915050565b600082825260208201905092915050565b60006108e58261096e565b91506108f08361096e565b9250827fffffffffffffffffffffffffffffffffffffffffffffffffffffffffffffffff0382111561092557610924610a09565b5b828201905092915050565b600061093b8261094e565b9050919050565b60008115159050919050565b600073ffffffffffffffffffffffffffffffffffffffff82169050919050565b6000819050919050565b60006109838261098a565b9050919050565b60006109958261094e565b9050919050565b60006109a7826109ae565b9050919050565b60006109b98261094e565b9050919050565b60006109cb8261096e565b91507fffffffffffffffffffffffffffffffffffffffffffffffffffffffffffffffff8214156109fe576109fd610a09565b5b600182019050919050565b7f4e487b7100000000000000000000000000000000000000000000000000000000600052601160045260246000fd5b610a4181610930565b8114610a4c57600080fd5b50565b610a5881610942565b8114610a6357600080fd5b50565b610a6f8161096e565b8114610a7a57600080fd5b5056fea26469706673582212208b5c098d39e6081ab7fb2256420318d5c6c3bf4051f406b067c0b43d6575941464736f6c63430008000033",
  "immutableReferences": {},
  "source": "// SPDX-License-Identifier: MIT\n\n/**\n *Submitted for verification at polygonscan.com on 2021-11-18\n*/\n\n\npragma solidity ^0.8;\n\ninterface IERC20 {\n    function totalSupply() external view returns (uint);\n\n    function balanceOf(address account) external view returns (uint);\n\n    function transfer(address recipient, uint amount) external returns (bool);\n\n    function allowance(address owner, address spender) external view returns (uint);\n\n    function approve(address spender, uint amount) external returns (bool);\n\n    function transferFrom(\n        address sender,\n        address recipient,\n        uint amount\n    ) external returns (bool);\n\n    event Transfer(address indexed from, address indexed to, uint value);\n    event Approval(address indexed owner, address indexed spender, uint value);\n}\n\n\ncontract EmployeeList {\n\n    // IERC20 public USDT;\n  \n\n    mapping(address=>bool) public EmployeeListCheck;\n    mapping(address=>uint256) public SalaryList;\n    uint public SalaryListCount;\n\n    // constructor(address _USDT) {\n    // IERC20 USDT = IERC20(address(0xDC90B0CAe2306B33156a6b46Cd243DE6effbA42F));\n    // }\n\n    function Employeelist(address _employee, uint _salary) external {\n        require(EmployeeListCheck[_employee] == false, \"Error: Wallet already listed\");\n        EmployeeListCheck[_employee] = true;\n        SalaryList[_employee] = _salary;\n        SalaryListCount += 1;\n    }\n}\n\npragma solidity ^0.8;\n\n\n// 0xDC90B0CAe2306B33156a6b46Cd243DE6effbA42F\ncontract SalaryDrop is EmployeeList {\n\n\n    EmployeeList public listedEmployee;\n    uint SalaryDropCount;\n    IERC20 public USDT;\n\n  address public admin;\n  modifier onlyOwner(address _admin){\n      _admin = msg.sender;\n      _;\n  }\n\n  constructor(address _employeeList,address usdt) {\n    listedEmployee = EmployeeList(_employeeList);\n    USDT = IERC20(usdt);\n    admin = msg.sender;\n  }\n\n\n  function SalaryDropHere(address _employeeAddress) external onlyOwner(msg.sender){\n    require(listedEmployee.EmployeeListCheck(_employeeAddress) == true,\"this address is not listed\");\n    USDT.transfer(_employeeAddress,listedEmployee.SalaryList(_employeeAddress));\n    SalaryDropCount++;\n    // return(string(SalaryDropCount) + \"Salary has been dropped\");\n  }\n  \n  \n\n\n}",
  "sourcePath": "D:/staken/truffle/contracts/CorpPay.sol",
  "compiler": {
    "name": "solc",
    "version": "0.8.0+commit.c7dfd78e.Emscripten.clang"
  },
  "schemaVersion": "3.2.3",
  "updatedAt": "2022-02-03T12:23:02.728Z",
  "devdoc": {
    "kind": "dev",
    "methods": {},
    "version": 1
  },
  "userdoc": {
    "kind": "user",
    "methods": {},
    "version": 1
  }
}