{
  "contractName": "EmployeeList",
  "abi": [
    {
      "inputs": [
        {
          "internalType": "address",
          "name": "",
          "type": "address"
        }
      ],
      "name": "EmployeeListCheck",
      "outputs": [
        {
          "internalType": "bool",
          "name": "",
          "type": "bool"
        }
      ],
      "stateMutability": "view",
      "type": "function"
    },
    {
      "inputs": [
        {
          "internalType": "address",
          "name": "",
          "type": "address"
        }
      ],
      "name": "SalaryList",
      "outputs": [
        {
          "internalType": "uint256",
          "name": "",
          "type": "uint256"
        }
      ],
      "stateMutability": "view",
      "type": "function"
    },
    {
      "inputs": [],
      "name": "SalaryListCount",
      "outputs": [
        {
          "internalType": "uint256",
          "name": "",
          "type": "uint256"
        }
      ],
      "stateMutability": "view",
      "type": "function"
    },
    {
      "inputs": [
        {
          "internalType": "address",
          "name": "_employee",
          "type": "address"
        },
        {
          "internalType": "uint256",
          "name": "_salary",
          "type": "uint256"
        }
      ],
      "name": "Employeelist",
      "outputs": [],
      "stateMutability": "nonpayable",
      "type": "function"
    }
  ],
  "bytecode": "0x608060405273dc90b0cae2306b33156a6b46cd243de6effba42f600360006101000a81548173ffffffffffffffffffffffffffffffffffffffff021916908373ffffffffffffffffffffffffffffffffffffffff16021790555034801561006557600080fd5b506104f9806100756000396000f3fe608060405234801561001057600080fd5b506004361061004c5760003560e01c80630a996dea146100515780637c137ea01461006f578063895aa9a21461008b578063ef10c56a146100bb575b600080fd5b6100596100eb565b604051610066919061039c565b60405180910390f35b610089600480360381019061008491906102c7565b6100f1565b005b6100a560048036038101906100a0919061029e565b61023c565b6040516100b29190610361565b60405180910390f35b6100d560048036038101906100d0919061029e565b61025c565b6040516100e2919061039c565b60405180910390f35b60025481565b600015156000808473ffffffffffffffffffffffffffffffffffffffff1673ffffffffffffffffffffffffffffffffffffffff16815260200190815260200160002060009054906101000a900460ff16151514610183576040517f08c379a000000000000000000000000000000000000000000000000000000000815260040161017a9061037c565b60405180910390fd5b60016000808473ffffffffffffffffffffffffffffffffffffffff1673ffffffffffffffffffffffffffffffffffffffff16815260200190815260200160002060006101000a81548160ff02191690831515021790555080600160008473ffffffffffffffffffffffffffffffffffffffff1673ffffffffffffffffffffffffffffffffffffffff1681526020019081526020016000208190555060016002600082825461023191906103c8565b925050819055505050565b60006020528060005260406000206000915054906101000a900460ff1681565b60016020528060005260406000206000915090505481565b60008135905061028381610495565b92915050565b600081359050610298816104ac565b92915050565b6000602082840312156102b057600080fd5b60006102be84828501610274565b91505092915050565b600080604083850312156102da57600080fd5b60006102e885828601610274565b92505060206102f985828601610289565b9150509250929050565b61030c81610430565b82525050565b600061031f601c836103b7565b91507f4572726f723a2057616c6c657420616c7265616479206c6973746564000000006000830152602082019050919050565b61035b8161045c565b82525050565b60006020820190506103766000830184610303565b92915050565b6000602082019050818103600083015261039581610312565b9050919050565b60006020820190506103b16000830184610352565b92915050565b600082825260208201905092915050565b60006103d38261045c565b91506103de8361045c565b9250827fffffffffffffffffffffffffffffffffffffffffffffffffffffffffffffffff0382111561041357610412610466565b5b828201905092915050565b60006104298261043c565b9050919050565b60008115159050919050565b600073ffffffffffffffffffffffffffffffffffffffff82169050919050565b6000819050919050565b7f4e487b7100000000000000000000000000000000000000000000000000000000600052601160045260246000fd5b61049e8161041e565b81146104a957600080fd5b50565b6104b58161045c565b81146104c057600080fd5b5056fea2646970667358221220e21d33c4eedd949befdc93a28cc08683f19953d20ab1485df32949b96f2852fa64736f6c63430008000033",
  "immutableReferences": {},
  "source": "pragma solidity ^0.8;\r\n\r\ninterface IERC20 {\r\n    function totalSupply() external view returns (uint);\r\n\r\n    function balanceOf(address account) external view returns (uint);\r\n\r\n    function transfer(address recipient, uint amount) external returns (bool);\r\n\r\n    function allowance(address owner, address spender) external view returns (uint);\r\n\r\n    function approve(address spender, uint amount) external returns (bool);\r\n\r\n    function transferFrom(\r\n        address sender,\r\n        address recipient,\r\n        uint amount\r\n    ) external returns (bool);\r\n\r\n    event Transfer(address indexed from, address indexed to, uint value);\r\n    event Approval(address indexed owner, address indexed spender, uint value);\r\n}\r\n\r\n\r\ncontract EmployeeList {\r\n\r\n    // IERC20 USDT;\r\n    mapping(address=>bool) public EmployeeListCheck;\r\n    mapping(address=>uint256) public SalaryList;\r\n    uint public SalaryListCount;\r\n\r\n    // constructor(address _USDT) {\r\n    IERC20 USDT = IERC20(address(0xDC90B0CAe2306B33156a6b46Cd243DE6effbA42F));\r\n    // }\r\n\r\n    function Employeelist(address _employee, uint _salary) external {\r\n        require(EmployeeListCheck[_employee] == false, \"Error: Wallet already listed\");\r\n        EmployeeListCheck[_employee] = true;\r\n        SalaryList[_employee] = _salary;\r\n        SalaryListCount += 1;\r\n    }\r\n}",
  "sourcePath": "D:/staken/truffle/contracts/employ.sol",
  "compiler": {
    "name": "solc",
    "version": "0.8.0+commit.c7dfd78e.Emscripten.clang"
  },
  "schemaVersion": "3.2.3",
  "updatedAt": "2022-02-03T11:16:38.222Z",
  "devdoc": {
    "kind": "dev",
    "methods": {},
    "version": 1
  },
  "userdoc": {
    "kind": "user",
    "methods": {},
    "version": 1
  }
}